:020000040800F2
:100000000050002071810008BDAE0008C1AE00089C
:10001000C5AE0008C9AE0008CDAE00080000000063
:10002000000000000000000000000000D1AE000849
:10003000D5AE000800000000D9AE0008C18100085C
:10004000C1810008C1810008C1810008C181000888
:10005000C1810008C1810008C1810008C181000878
:10006000C1810008C1810008C1810008C181000868
:10007000C1810008C1810008C1810008C181000858
:10008000C1810008C1810008C1810008C181000848
:10009000DDAE0008C1810008C18100081595000887
:1000A000C1810008C1810008C1810008C181000828
:1000B000C5820008B5850008C1810008C18100081B
:1000C000C1810008C1810008C1810008C181000808
:1000D000C181000871750008C1810008C181000854
:1000E0000D330008C1810008C18100080000000034
:1000F0000000000000000000000000000000000000
:0C01000000000000000000005FF808F1A3
:1001100010B5054C237833B9044B13B10448AFF341
:1001200000800123237010BDD401002000000000D6
:100130009CC0000808B5034B1BB103490348AFF34B
:10014000008008BD00000000D80100209CC000080D
:1001500081F0004102E000BF83F0004330B54FEA78
:1001600041044FEA430594EA050F08BF90EA020FE5
:100170001FBF54EA000C55EA020C7FEA645C7FEA78
:10018000655C00F0E2804FEA5454D4EB5555B8BF9B
:100190006D420CDD2C4480EA020281EA030382EA0C
:1001A000000083EA010180EA020281EA0303362D9E
:1001B00088BF30BD11F0004F4FEA01314FF4801C71
:1001C0004CEA113102D0404261EB410113F0004F83
:1001D0004FEA03334CEA133302D0524263EB43033A
:1001E00094EA050F00F0A780A4F10104D5F1200ED8
:1001F0000DDB02FA0EFC22FA05F2801841F1000133
:1002000003FA0EF2801843FA05F359410EE0A5F106
:1002100020050EF1200E012A03FA0EFC28BF4CF037
:10022000020C43FA05F3C01851EBE37101F00045ED
:1002300007D54FF0000EDCF1000C7EEB00006EEBFA
:100240000101B1F5801F1BD3B1F5001F0CD3490884
:100250005FEA30004FEA3C0C04F101044FEA4452DB
:1002600012F5800F80F09A80BCF1004F08BF5FEA62
:10027000500C50F1000041EB045141EA050130BD42
:100280005FEA4C0C404141EB010111F4801FA4F1E5
:100290000104E9D191F0000F04BF01460020B1FA3A
:1002A00081F308BF2033A3F10B03B3F120020CDA72
:1002B0000C3208DD02F1140CC2F10C0201FA0CF050
:1002C00021FA02F10CE002F11402D8BFC2F1200CB5
:1002D00001FA02F120FA0CFCDCBF41EA0C0190406B
:1002E000E41AA2BF01EB0451294330BD6FEA0404B4
:1002F0001F3C1CDA0C340EDC04F11404C4F120029F
:1003000020FA04F001FA02F340EA030021FA04F3B0
:1003100045EA030130BDC4F10C04C4F1200220FA07
:1003200002F001FA04F340EA0300294630BD21FA45
:1003300004F0294630BD94F0000F83F4801306BF0B
:1003400081F480110134013D4EE77FEA645C18BFFF
:100350007FEA655C29D094EA050F08BF90EA020F96
:1003600005D054EA000C04BF1946104630BD91EA8E
:10037000030F1EBF0021002030BD5FEA545C05D191
:100380004000494128BF41F0004130BD14F58004D0
:100390003CBF01F5801130BD01F0004545F0FE4144
:1003A00041F470014FF0000030BD7FEA645C1ABF79
:1003B000194610467FEA655C1CBF0B46024650EAB0
:1003C000013406BF52EA033591EA030F41F40021DC
:1003D00030BD00BF90F0000F04BF0021704730B562
:1003E0004FF4806404F132044FF000054FF0000137
:1003F00050E700BF90F0000F04BF0021704730B5F8
:100400004FF4806404F1320410F0004548BF4042CC
:100410004FF000013EE700BF42004FEAE2014FEA21
:1004200031014FEA02701FBF12F07F4393F07F4FFC
:1004300081F06051704792F0000F14BF93F07F4F2E
:10044000704730B54FF4607401F0004521F0004171
:1004500020E700BF50EA010208BF704730B54FF0F7
:1004600000050AE050EA010208BF704730B511F0FC
:10047000004502D5404261EB41014FF4806404F134
:1004800032045FEA915C3FF4DCAE4FF003025FEAB6
:10049000DC0C18BF03325FEADC0C18BF033202EB3E
:1004A000DC02C2F1200300FA03FC20FA02F001FA98
:1004B00003FE40EA0E0021FA02F11444C1E600BF37
:1004C00070B54FF0FF0C4CF4E06C1CEA11541DBFEA
:1004D0001CEA135594EA0C0F95EA0C0F00F0DEF8B5
:1004E0002C4481EA030621EA4C5123EA4C5350EA9A
:1004F000013518BF52EA033541F4801143F48013EB
:1005000038D0A0FB02CE4FF00005E1FB02E506F07B
:100510000042E0FB03E54FF00006E1FB03569CF0D0
:10052000000F18BF4EF0010EA4F1FF04B6F5007FD6
:1005300064F5407404D25FEA4E0E6D4146EB060648
:1005400042EAC62141EA55514FEAC52040EA5E50D1
:100550004FEACE2EB4F1FD0C88BFBCF5E06F1ED87B
:10056000BEF1004F08BF5FEA500E50F1000041EBB2
:10057000045170BD06F0004646EA010140EA02005F
:1005800081EA0301B4EB5C04C2BFD4EB0C0541EA81
:10059000045170BD41F480114FF0000E013C00F396
:1005A000AB8014F1360FDEBF002001F0004170BDBA
:1005B000C4F10004203C35DA0C341BDC04F11404D3
:1005C000C4F1200500FA05F320FA04F001FA05F25F
:1005D00040EA020001F0004221F0004110EBD3702C
:1005E00021FA04F642EB06015EEA430E08BF20EA58
:1005F000D37070BDC4F10C04C4F1200500FA04F3FB
:1006000020FA05F001FA04F240EA020001F000418C
:1006100010EBD37041F100015EEA430E08BF20EAFF
:10062000D37070BDC4F1200500FA05F24EEA020E47
:1006300020FA04F301FA05F243EA020321FA04F076
:1006400001F0004121FA04F220EA020000EBD3702D
:100650005EEA430E08BF20EAD37070BD94F0000F2D
:100660000FD101F00046400041EB010111F4801F61
:1006700008BF013CF7D041EA060195F0000F18BF12
:10068000704703F00046520043EB030313F4801F4E
:1006900008BF013DF7D043EA0603704794EA0C0F08
:1006A0000CEA135518BF95EA0C0F0CD050EA41061E
:1006B00018BF52EA4306D1D181EA030101F000419B
:1006C0004FF0000070BD50EA410606BF10461946C3
:1006D00052EA430619D094EA0C0F02D150EA0136CF
:1006E00013D195EA0C0F05D152EA03361CBF104610
:1006F00019460AD181EA030101F0004141F0FE41AF
:1007000041F470014FF0000070BD41F0FE4141F432
:10071000780170BD70B54FF0FF0C4CF4E06C1CEA32
:1007200011541DBF1CEA135594EA0C0F95EA0C0FE7
:1007300000F0A7F8A4EB050481EA030E52EA0335A2
:100740004FEA013100F088804FEA03334FF08055C3
:1007500045EA131343EA12634FEA022245EA1115F0
:1007600045EA10654FEA00260EF000419D4208BFA1
:10077000964244F1FD0404F5407402D25B084FEA4E
:100780003202B61A65EB03055B084FEA32024FF4FA
:1007900080104FF4002CB6EB020E75EB030E22BF57
:1007A000B61A754640EA0C005B084FEA3202B6EB17
:1007B000020E75EB030E22BFB61A754640EA5C00C6
:1007C0005B084FEA3202B6EB020E75EB030E22BF56
:1007D000B61A754640EA9C005B084FEA3202B6EB57
:1007E000020E75EB030E22BFB61A754640EADC0016
:1007F00055EA060E18D04FEA051545EA16754FEA78
:1008000006164FEAC30343EA52734FEAC2025FEA95
:100810001C1CC0D111F4801F0BD141EA00014FF024
:1008200000004FF0004CB6E711F4801F04BF0143F5
:100830000020B4F1FD0C88BFBCF5E06F3FF6AFAE11
:10084000B5EB030C04BFB6EB020C5FEA500C50F1A1
:10085000000041EB045170BD0EF0004E4EEA113124
:1008600014EB5C04C2BFD4EB0C0541EA045170BD2B
:1008700041F480114FF0000E013C90E645EA060E6F
:100880008DE60CEA135594EA0C0F08BF95EA0C0F9D
:100890003FF43BAF94EA0C0F0AD150EA01347FF4E5
:1008A00034AF95EA0C0F7FF425AF104619462CE7BC
:1008B00095EA0C0F06D152EA03353FF4FDAE10461F
:1008C000194622E750EA410618BF52EA43067FF470
:1008D000C5AE50EA41047FF40DAF52EA43057FF400
:1008E000EBAE12E74FF0FF3C06E000BF4FF0010C0B
:1008F00002E000BF4FF0010C4DF804CD4FEA410C6F
:100900007FEA6C5C4FEA430C18BF7FEA6C5C1BD03B
:1009100001B050EA410C0CBF52EA430C91EA030FBC
:1009200002BF90EA020F0020704710F1000F91EA19
:10093000030F58BF994208BF90422CBFD8176FEAE7
:10094000E37040F0010070474FEA410C7FEA6C5CB5
:1009500002D150EA013C07D14FEA430C7FEA6C5CBC
:10096000D6D152EA033CD3D05DF8040B704700BFE8
:100970008446104662468C461946634600E000BF36
:1009800001B5FFF7B7FF002848BF10F1000F01BD08
:100990004DF808EDFFF7F4FF0CBF012000205DF8D3
:1009A00008FB00BF4DF808EDFFF7EAFF34BF012058
:1009B00000205DF808FB00BF4DF808EDFFF7E0FFF1
:1009C00094BF012000205DF808FB00BF4DF808ED42
:1009D000FFF7CEFF94BF012000205DF808FB00BFA9
:1009E0004DF808EDFFF7C4FF34BF012000205DF88B
:1009F00008FB00BF4FEA4102B2F1E04324BFB3F568
:100A0000001CDCF1FE5C0DD901F0004C4FEAC00285
:100A10004CEA5070B2F1004F40EB830008BF20F069
:100A20000100704711F0804F21D113F13872BCBF23
:100A300001F00040704741F480114FEA5252C2F178
:100A40001802C2F1200C10FA0CF320FA02F018BFC1
:100A500040F001004FEAC1234FEAD32303FA0CFC14
:100A600040EA0C0023FA02F34FEA4303CCE77FEAA3
:100A7000625307D150EA01331EBF4FF0FE4040F4ED
:100A80004000704701F0004040F0FE4040F400009C
:100A9000704700BF80F0004002E000BF81F00041DD
:100AA00042001FBF5FEA410392EA030F7FEA226C14
:100AB0007FEA236C6AD04FEA1262D2EB1363C1BFA4
:100AC000D218414048404140B8BF5B42192B88BF13
:100AD000704710F0004F40F4000020F07F4018BF36
:100AE000404211F0004F41F4000121F07F4118BF56
:100AF000494292EA030F3FD0A2F1010241FA03FCFE
:100B000010EB0C00C3F1200301FA03F100F00043E5
:100B100002D5494260EB4000B0F5000F13D3B0F1AD
:100B2000807F06D340084FEA310102F10102FE2A1C
:100B300051D2B1F1004F40EBC25008BF20F001008C
:100B400040EA03007047490040EB000010F4000F3A
:100B5000A2F10102EDD1B0FA80FCACF1080CB2EBCD
:100B60000C0200FA0CF0AABF00EBC250524218432C
:100B7000BCBFD0401843704792F0000F81F40001D1
:100B800006BF80F400000132013BB5E74FEA4103A4
:100B90007FEA226C18BF7FEA236C21D092EA030F10
:100BA00004D092F0000F08BF0846704790EA010F8A
:100BB0001CBF0020704712F07F4F04D1400028BFB7
:100BC00040F00040704712F100723CBF00F5000099
:100BD000704700F0004343F0FE4040F400007047CF
:100BE0007FEA226216BF08467FEA2363014642027B
:100BF00006BF5FEA412390EA010F40F4800070478E
:100C00004FF0000304E000BF10F0004348BF404233
:100C10005FEA000C08BF704743F0964301464FF06F
:100C200000001CE050EA010208BF70474FF00003CB
:100C30000AE000BF50EA010208BF704711F000430C
:100C400002D5404261EB41015FEA010C02BF8446DC
:100C50000146002043F0B64308BFA3F18053A3F53B
:100C60000003BCFA8CF2083AA3EBC25310DB01FA82
:100C700002FC634400FA02FCC2F12002BCF1004F06
:100C800020FA02F243EB020008BF20F00100704797
:100C900002F1200201FA02FCC2F1200250EA4C00EB
:100CA00021FA02F243EB020008BF20EADC70704731
:100CB0004FF0FF0C1CEAD0521EBF1CEAD15392EA3F
:100CC0000C0F93EA0C0F6FD01A4480EA010C40021B
:100CD00018BF5FEA41211ED04FF0006343EA501075
:100CE00043EA5111A0FB01310CF00040B1F5000FB7
:100CF0003EBF490041EAD3715B0040EA010062F166
:100D00007F02FD2A1DD8B3F1004F40EBC25008BF4F
:100D100020F00100704790F0000F0CF0004C08BF6D
:100D200049024CEA502040EA51207F3AC2BFD2F13A
:100D3000FF0340EAC250704740F400004FF0000348
:100D4000013A5DDC12F1190FDCBF00F00040704782
:100D5000C2F10002410021FA02F1C2F1200200FAC0
:100D600002FC5FEA310040F1000053EA4C0308BF87
:100D700020EADC70704792F0000F00F0004C02BFD8
:100D8000400010F4000F013AF9D040EA0C0093F053
:100D9000000F01F0004C02BF490011F4000F013BAD
:100DA000F9D041EA0C018FE70CEAD15392EA0C0F1B
:100DB00018BF93EA0C0F0AD030F0004C18BF31F086
:100DC000004CD8D180EA010000F00040704790F05C
:100DD000000F17BF90F0004F084691F0000F91F000
:100DE000004F14D092EA0C0F01D142020FD193EAC6
:100DF0000C0F03D14B0218BF084608D180EA01004E
:100E000000F0004040F0FE4040F40000704740F029
:100E1000FE4040F4400070474FF0FF0C1CEAD052F7
:100E20001EBF1CEAD15392EA0C0F93EA0C0F69D053
:100E3000A2EB030280EA010C49024FEA402037D0BE
:100E40004FF0805343EA111143EA10130CF00040B5
:100E50008B4238BF5B0042F17D024FF4000C8B42A5
:100E600024BF5B1A40EA0C00B3EB510F24BFA3EB85
:100E7000510340EA5C00B3EB910F24BFA3EB910355
:100E800040EA9C00B3EBD10F24BFA3EBD10340EAAF
:100E9000DC001B0118BF5FEA1C1CE0D1FD2A3FF6F5
:100EA00050AF8B4240EBC25008BF20F001007047AA
:100EB0000CF0004C4CEA50207F32C2BFD2F1FF034D
:100EC00040EAC250704740F400004FF00003013A7E
:100ED00037E792F0000F00F0004C02BF400010F422
:100EE000000F013AF9D040EA0C0093F0000F01F036
:100EF000004C02BF490011F4000F013BF9D041EA58
:100F00000C0195E70CEAD15392EA0C0F08D142028A
:100F10007FF47DAF93EA0C0F7FF470AF084676E75D
:100F200093EA0C0F04D14B023FF44CAF08466EE736
:100F300030F0004C18BF31F0004CCAD130F0004204
:100F40007FF45CAF31F000437FF43CAF5FE700BF5C
:100F50004FF0FF3C06E000BF4FF0010C02E000BF85
:100F60004FF0010C4DF804CD4FEA40024FEA410327
:100F70007FEA226C18BF7FEA236C11D001B052EADD
:100F8000530C18BF90EA010F58BFB2EB030088BFA3
:100F9000C81738BF6FEAE17018BF40F00100704712
:100FA0007FEA226C02D15FEA402C05D17FEA236CF4
:100FB000E4D15FEA412CE1D05DF8040B704700BF3B
:100FC000844608466146FFE70FB5FFF7C9FF0028D2
:100FD00048BF10F1000F0FBD4DF808EDFFF7F4FF0B
:100FE0000CBF012000205DF808FB00BF4DF808EDA4
:100FF000FFF7EAFF34BF012000205DF808FB00BFC7
:101000004DF808EDFFF7E0FF94BF012000205DF8E8
:1010100008FB00BF4DF808EDFFF7D2FF94BF012099
:1010200000205DF808FB00BF4DF808EDFFF7C8FF92
:1010300034BF012000205DF808FB00BF4FEA4002EA
:101040004FEA41037FEA226C02D15FEA402C08D1CB
:101050007FEA236C02D15FEA412C02D14FF00000FD
:1010600070474FF0010070474FEA4002B2F1FE4F67
:101070000FD34FF09E03B3EB12620DD94FEA00235A
:1010800043F0004310F0004F23FA02F018BF404233
:1010900070474FF00000704712F1610F01D142021A
:1010A00005D110F0004008BF6FF0004070474FF0CE
:1010B0000000704742000ED2B2F1FE4F0BD34FF04A
:1010C0009E03B3EB126209D44FEA002343F00043BE
:1010D00023FA02F070474FF00000704712F1610FE1
:1010E00001D1420202D14FF0FF3070474FF00000B3
:1010F000704700BF40F0BF60024B40F40030D86042
:10110000704700BF00ED00E0C3785BB901210378B0
:1011100014485A0903F01F03203201FA03F340F880
:1011200022307047104B0F21DA6870B4D24301248B
:1011300085784378C2F30222C2F1040621FA02F252
:101140002A40B34001781343064A1B0101F01F05F2
:101150005018DBB2AC4080F80033490942F8214016
:1011600070BC704700E100E000ED00E0837933B32C
:1011700030B404681B4BE1431D6802790D401D60CB
:101180005D6802F180422940596002F5823215689B
:1011900041792C43146002689C68D04304409C60F1
:1011A000DC68102900EA0400D86013D030BC01F1DB
:1011B000804303F5823319680A431A607047037944
:1011C000016803F1804303F582331A6822EA0102C1
:1011D0001A607047996830BC11439960D9680A4316
:1011E000DA60704700040140054B1A685B690340F0
:1011F00004D0024214BF01200020704718467047F7
:1012000000040140014B5861704700BF00040140D9
:10121000024B0349034A59605A607047002002405C
:1012200023016745AB89EFCD3849CB6813F0010F37
:10123000CB6803D15B0738D502207047DB072CD47D
:101240004FF43023314AD168490705D50220013BCC
:10125000002B08BF05207047D268D2061AD4012B94
:1012600021D02A4A136943F00203136150611369C4
:1012700043F040031361D36813F0010FD36819D111
:101280005B073BD5022041F6FD71204A13690B40F4
:10129000136170470320013BDAE71D4BCA68D20790
:1012A000D0D5013BFAD105207047CB68D906D8D5F7
:1012B00003207047D90709D4D3685B07E2D4D36809
:1012C00013F0100F14BF03200420DCE7104BD1688B
:1012D000C90708D4D168013B490708D50220002B73
:1012E00008BF0520CFE7013BF1D10520CBE7D2684D
:1012F00012F0100F14BF03200420F0E7D36813F09E
:10130000100F0CBF04200320BDE700BF00200240E7
:10131000FFFF0A0010B4394CE36813F0010FE368D3
:1013200004D15B0738D5022010BC7047DB0729D4F5
:101330004FF40053314AD468640705D50220013BBD
:10134000002B08BF0520EFE7D268D20617D4012B87
:101350001FD02A4A136943F0010313610180D36847
:1013600013F0010FD3681CD15B073FD5022041F673
:10137000FE71224A10BC13690B40136170470320B1
:10138000013BDDE741F6FF73E268D207D2D5013BAE
:10139000FAD1052010BC7047E368DC06D9D50320DC
:1013A000C2E7D90709D4D3685B07DFD4D36813F049
:1013B000100F14BF03200420D9E741F6FF73D16852
:1013C000CC0708D4D168013B490708D50220002B7F
:1013D00008BF0520CBE7013BF1D10520C7E7D26864
:1013E00012F0100F14BF03200420F0E7D36813F0AD
:1013F000100F0CBF04200320B9E700BF00200240FB
:1014000030B4CD78EB0648BF8B7805F00F0448BFA9
:101410001C430B8813F0FF0F32D0482D026800F0F8
:101420008180282D00F0B680D90744BF22F00F023A
:101430002243990744BF22F0F00242EA04125907FE
:1014400044BF22F4706242EA0422190744BF22F426
:10145000704242EA0432D90644BF22F4702242EAC2
:101460000442990644BF22F4700242EA045259062B
:1014700044BF22F0706242EA0462190671D402602D
:10148000FF2B30D9282D42682FD0482D6CD0D9059C
:1014900044BF22F00F0222439D0544BF22F0F00218
:1014A00042EA0412590544BF22F4706242EA04225F
:1014B0001D0544BF22F4704242EA0432D90444BFFD
:1014C00022F4702242EA04429D0444BF22F47002D6
:1014D00042EA0452590444BF22F0706242EA0462B4
:1014E0001D043BD4426030BC7047D90500F1D68062
:1014F0009D0500F1CB80590500F1C0801D0500F16C
:10150000B580D90400F1AA809D0400F19F805904A0
:1015100000F194801B04E5D54FF4004364F31F727F
:101520004361DFE7D90700F1E380990700F1D98033
:10153000590700F1CF80190700F1C580D90600F1E5
:10154000BB80990600F1B180590600F1D7801906D9
:1015500095D5802164F31F72016190E764F31F72D7
:10156000C0E764F31F728AE7D90548D49D053ED4CD
:10157000590534D41D052AD4D9044FD49D0445D42B
:10158000590453D41D04ADD54FF4004364F31F72C6
:101590000361A7E7D90700F1E280990700F1D8803D
:1015A000590700F1CE80190700F1C480D90600F177
:1015B000BA80990600F1B080590600F1A68019069C
:1015C0007FF55DAF802164F31F72416157E74FF4EF
:1015D000006122F4704242EA04320161CCE74FF428
:1015E000806122F4706242EA04220161C2E74FF492
:1015F000007122F0F00242EA04120161B8E74FF4F0
:10160000807122F00F0222430161AFE74FF40051D5
:1016100022F4700242EA04520161B1E74FF48051B2
:1016200022F4702242EA04420161A7E74FF48041AC
:1016300022F0706242EA04620161A3E74FF4804144
:1016400022F0706242EA0462416163E74FF40051A4
:1016500022F4700242EA0452416158E74FF480518B
:1016600022F4702242EA044241614DE74FF40061E6
:1016700022F4704242EA0432416142E74FF4806151
:1016800022F4706242EA0422416137E74FF40071AC
:1016900022F0F00242EA041241612CE74FF480711B
:1016A00022F00F022243416122E7202122F470023E
:1016B00042EA0452016147E7102122F4702242EA13
:1016C000044201613DE7082122F4704242EA0432FB
:1016D000016133E7042122F4706242EA04220161CD
:1016E00029E7022122F0F00242EA041201611FE719
:1016F000012122F00F022243016116E7402122F06E
:10170000706242EA0462016121E7402122F07062C6
:1017100042EA0462416152E7202122F4700242EA67
:101720000452416148E7102122F4702242EA044247
:1017300041613EE7082122F4704242EA04324161ED
:1017400034E7042122F4706242EA042241612AE76C
:10175000022122F0F00242EA0412416120E7012155
:1017600022F00F022243416117E700BF806880B278
:10177000704700BFC06880B2704700BF016170470A
:10178000416170470AB9416170470161704700BF0C
:101790000028194B00F44012B4BFDB695B68B2F556
:1017A000401F30B484B21ED0C20213D50322C0F34E
:1017B0000345AA4023EA020343F0706319B1420DC6
:1017C0001201944023430C4A0028B4BFD3615360F4
:1017D00030BC7047420D120104FA02F223EA020300
:1017E00043F07063EAE7044D23F070636A6822F007
:1017F00070626A60E2E700BF0000014010B40F248D
:1018000001F0FC0303F1804303F5803301F0030191
:101810009A6889008C4022EA04029A609A6800FA69
:1018200001F11143996010BC704700BF214A30B4E8
:10183000536803F00C03042B06D0082B25D01BB1F2
:101840001D4A1346026001E01B4B0360194A1B4C02
:1018500051681B4DC1F30311615CCB40436051687B
:10186000C1F30221615C23FA01F181605168C1F387
:10187000C221615CCB40C3605268C2F38132AA5C72
:1018800030BCB3FBF2F30361704753685168C3F394
:101890008343C90303F1020307D55268920304D4BA
:1018A000054A02FB03F30360D0E7064A02FB03F399
:1018B0000360CBE70010024000127A000400002011
:1018C0000000002000093D00044A936919B923EA89
:1018D000000090617047184390617047001002400B
:1018E000274A038890429BB212D002F500629042D0
:1018F0000ED0B0F1804F0BD0A2F59832904207D0B5
:1019000002F58062904203D002F58062904203D1DA
:101910004A8823F0700313431A4A904227D002F5F5
:101920008062904223D070B423F44073CE888D88B7
:101930000C889BB202F58C3233439042038085853C
:1019400004850ED0104B98420BD003F540639842AB
:1019500007D003F58063984203D003F58063984273
:1019600001D10B7A0386012370BC83827047038008
:101970008B8883850B88038501238382704700BF92
:10198000002C01400010004000340140028CF0B4F3
:1019900022F001021204120C0D890284038C4E887D
:1019A0008488028B23F0020335431B0422F0730268
:1019B000184E1B0C12040F882B43120CB0429BB222
:1019C000A4B242EA070215D0134DA84212D005F581
:1019D0004065A8420ED005F58065A8420AD005F5FD
:1019E0008065A84206D0C98884800283F0BC8186C5
:1019F000038470474E898D89CF8923F008033343D0
:101A000024F440748E883D4323F004032C43334375
:101A1000A4B2E8E7002C01400034014000234FF657
:101A2000FF72036042600372704700BF038829B9E8
:101A300023F001031B041B0C038070479BB243F08F
:101A400001030380704700BFB0F8443021B9C3F3ED
:101A50000E03A0F8443070476FEA43436FEA5343E4
:101A60009BB2A0F84430704783899BB21AB923EA2D
:101A7000010181817047194381817047038B23F0F5
:101A800008031B041B0C194301837047C94389B227
:101A90000182704770B50D460446038ACA889BB21E
:101AA00023F440531343898903828289AE8822F448
:101AB000B05323F00C031B0428891B0C6A893343A1
:101AC000034313439BB2A381A38A86B09BB223F442
:101AD00040730B4301A8A382FFF7A8FE04991A489C
:101AE000039BA289844208BF0B4612F4004F2A6868
:101AF00003EB830314BF5200920003EB8303B3FB99
:101B0000F2F36422114DA189A5FB0360400902FB99
:101B100010330A044FEA00100AD41B013233A5FB2C
:101B20000323C3F3431303439BB2238106B070BD69
:101B3000D9003231A5FB0131C1F3421242EA000360
:101B40009BB2238106B070BD003801401F85EB5168
:101B5000838929B923F400531B041B0C838170472C
:101B60009BB243F400538381704700BF012310B43C
:101B700001F01F04C1F34211012903FA04F30FD04D
:101B800002290CBF103014302AB9026810BC22EAB6
:101B9000030303607047026810BC1343036070477F
:101BA0000C30F1E7C1F30801818070472DE9F04165
:101BB000082710254FF0030882B0144C02AE3846B7
:101BC0000121FFF781FE26F8045D314620468DF89D
:101BD00007508DF80680FFF713FC38460121FFF708
:101BE00073FE314620468DF806808DF80750ADF81B
:101BF0000470FFF705FC29462046FFF7C1FD394672
:101C00002046FFF7BDFD02B0BDE8F081000C0140A9
:101C100010B50748FFF7AEFDC0F300140448FFF706
:101C2000A9FD030748BF44F00204204610BD00BFD1
:101C3000000C014010B5054C10212046FFF7A0FD17
:101C40002046BDE810400821FFF79ABD000C014076
:101C500038B50F4D6B783BB9044630B142060DD410
:101C6000230610D400232B7338BD10210948FFF739
:101C700087FD08210748FFF783FDF3E7102105489A
:101C8000FFF77CFDECE708210248FFF777FDE9E765
:101C900088110020000C014038B5124C2378022B2B
:101CA00004D0054604F0BEFA637803B138BD35B1FF
:101CB0006A060DD42B0610D40023237338BD1021DF
:101CC0000948FFF75DFD08210748FFF759FDF3E7D5
:101CD00010210548FFF752FDECE708210248FFF705
:101CE0004DFDE9E788110020000C01400B4B0C4929
:101CF00010B45C1C091B03F58060CA5C03F8012F5B
:101D00009842FAD123780A2B06D04FF48062FF2143
:101D1000044810BC09F017B910BC7047D30C002060
:101D200001FC0108D40C0020014B185C704700BF77
:101D3000D40C0020014B1954704700BFD40C002074
:101D40002DE9F0410646002A40D00023214F441ED1
:101D50003C448D18002B4FEAD31318BF012311F810
:101D6000010B0344A942DBB204F8010FF2D116447F
:101D70001948BB55FFF758FA042801D0BDE8F08197
:101D80004FF6FF77154D144CDFF85480AE1E35F832
:101D9000041CB94202D02046FFF7BCFA3188A01CCF
:101DA000B94204F1040409D0FFF7B4FA444505F13F
:101DB000040506F10406EAD1BDE8F081444505F1C9
:101DC000040506F10406E2D1BDE8F0811346014F97
:101DD000CEE700BFD40C002000FC0108D80C002086
:101DE00000000208F0B4CAB100230E4F4D1E3D445E
:101DF0008618002B4FEAD31318BF012315F8014FA3
:101E000000F8014B2344B042DBB2F2D11144785CBC
:101E1000F0BCC01AB0FA80F0400970471346014F79
:101E2000F5E700BFD40C002008B500215C2207486C
:101E300009F089F80649002005F06EFD00B108BDE3
:101E40000720BDE8084004F0E3BC00BFD410002028
:101E5000041100200149024807F070BDB4110020B0
:101E6000F01000202DE9F04F0746DFF8948254224D
:101E700000219FB0404609F066F89D4B07CBC8F89B
:101E80000100C8F80510C8F809203B78242B00F0A1
:101E90001C81102300220B93042309920A934FF014
:101EA000000917F802A08DF853204C46CDF8209079
:101EB000CDF81890CDF81C90BAF1000F00F0E58035
:101EC000AAF14105EBB2192B00F2AC82531C0DF1C3
:101ED000530115AA38468DF8533002F009F900284D
:101EE00000F0A582DDF854B05846FFF7E3F8C6B21B
:101EF0003046FEF789FE01465846FEF7CFFD7D4984
:101F0000FEF7D6FE09F0DCF8BAF1470F82B224D012
:101F1000BAF14D0F40F08580002A40F0C5821E2E98
:101F200000F2048101227449B2400A4240F09880D4
:101F300012F4607F40F0BC8012F0380F00F0F680A1
:101F4000042E00F00382052E00F09182032E00F093
:101F50000B824FF480520C2389E05E2E00F2E68063
:101F6000DFE816F0D000D000D000D0004A01E40035
:101F7000E400E400E400E4003201E400E400E400F2
:101F8000E400E400E40044014401440112011201B0
:101F9000E400E400E400E400E400E4003201E400D2
:101FA0003201E400E400E400E400E400E400E400C2
:101FB000D000E400F000E400E4002201E400E400CA
:101FC000E400E400E4002201E400E400E4004A014B
:101FD000180118011801180118011801E4001E0168
:101FE000E400E400E400E400E400E400E400E400D1
:101FF000E400E400E400E400E400E400E400E400C1
:10200000E400E400FE00E400E400E400E400E40096
:10201000E400E400E400E4000301030132010C01E8
:102020000C01192D00F28280DFE815F014017A010D
:10203000800080008000840180008000F3000201A5
:1020400032013B01800040018000530180005801B3
:102050005D01630180008000800070011E01280185
:10206000002E68D0012E3DD14FF400620B2344FABC
:1020700003F3D80700F1128214439DF8532017F898
:1020800002A0BAF1000F7FF41BAF069B23B1079BA0
:10209000002B08BF0223079319F0200F00F0768170
:1020A000164BD8F82C209A4240F370811B243EE056
:1020B000082E00F04481092E00F0BE81072E00F0AA
:1020C0004C814FF400520D23D1E7012388F80130F1
:1020D0000993112300220B93052388F802200A9309
:1020E0000322DCE688F808604FF400620B23BEE7A9
:1020F000D41000200000C8420700004080969800DD
:1021000030110020079B002B40F02083262E88F8FA
:10211000016040F0C581A2F114039BB21E2B05D8CB
:10212000C94921FA03F3DE0700F125811424204672
:102130001FB0BDE8F08F03234FF4006288F8083029
:102140000B2394E70721002A40F0AE8144FA01F303
:10215000DD0700F1A38101238B401C43A4B28CE76F
:102160005023012188F80130EDE7002A40F08681F4
:10217000A6F15A0388F804300321E7E7C6F15E03AD
:1021800088F802300521DEE7C6F1150388F8033030
:102190000621D8E7A6F1360388F807300921D2E7EF
:1021A000002AC3D10A21D1E7079B002B40F0CE8241
:1021B000312E00F083810A2AB8D1012388F8063035
:1021C000032308210793C1E7002A40F05F81079BA2
:1021D000002B40F0BB821C2E88F8006000F06B8161
:1021E0001E2E00F06881012307930DE0A6F1110374
:1021F00088F805300221A6E71C2E88F8006000F060
:102200002D811E2E00F02A815C2E00F027810021F6
:1022100099E7089B022543F0010308930123C8F8BE
:1022200014B049FA03F3DB070FD445EA090924E7A0
:10223000089BC8F818B043F002030893022349FA38
:1022400003F3DB074FF00405EFD5192420461FB038
:10225000BDE8F08F069BC8F84CB043F00803069326
:102260004FF400550D23DCE7069BC8F844B043F05B
:10227000020306934FF400650B23D2E7069BC8F8D0
:1022800048B043F0040306934FF480550C23C8E78D
:10229000089BC8F81CB043F00403089308250323E7
:1022A000BFE788F8286010250423BAE75846FEF7F0
:1022B000DBFE20250523C8F82C0049FA03F3DA07D2
:1022C000C3D458460021FEF791FE0028ADD0042467
:1022D0002DE7C8F830B040250623EEE7C8F834B043
:1022E000802507239DE7C8F838B04FF48075082390
:1022F000E3E756495846FEF797FE002840F02D8246
:1023000088F83C604FF400750923D6E7069BC8F8AF
:1023100040B043F0010306934FF480650A2380E741
:10232000069BC8F850B043F0100306934FF4804565
:102330000E2376E7C8F810B001250023BDE740233F
:102340004FF4005288F809300D2390E620234FF413
:10235000805288F80A300C2389E680234FF400521B
:1023600088F809300D2382E610234FF4805288F854
:102370000A300C237BE6364B0121A3FB0223DB084A
:10238000763B88F8013002230793DFE6099B002B98
:1023900040F08C8098F80230012B00F012812D4B18
:1023A0005B783BB919F0010F40F0A780294B1B69FE
:1023B000C8F8103019F4807F03D1264BDB68C8F8C9
:1023C000383098F80050042D00F0B68098F80530A9
:1023D000002B00F0A880012B40F09C8000260227F3
:1023E0000F9305230E960D970C9398F80330012B4D
:1023F00000F0A880079B032B00F0D880DFF858C0BE
:102400000DF1640EBCE80F00AEE80F00DCF8003000
:10241000CEF80030A30565D598F80700062855D9F1
:102420001D2484E6012420461FB0BDE8F08F02245D
:1024300020461FB0BDE8F08F00234FF4005288F80B
:1024400009300D2313E600BF0104104000007F4354
:10245000CDCCCCCCD41000200411002012B10A2A1B
:102460007FF464AE331888F8003000216EE6002354
:102470004FF4805288F80A300C23F8E50A2A7FF4DA
:1024800055AE5A2E3FF452AE04215FE61C2E88F85A
:102490000060E4D01E2E7FF4B7AEE0E7152446E6D8
:1024A0000223012107934EE6172440E619F0010F9D
:1024B00023D116243BE601230793D3E79DF81C3074
:1024C000082188F80630032307933FE6A44B9B7945
:1024D000834207D019A905F01FFA002800F03481C3
:1024E00098F800500A2D00F003815C2D7AD1069BEC
:1024F000002B40F03B811A2419E698F80330012B99
:102500007FF458AFD8F810009649FEF7D1FBC8F811
:1025100010004FE70623022601270C9300230E9696
:102520000D970F9361E71F460D93032301260C932C
:1025300002230E960F9358E719F0400F40F00881E0
:102540001C24F4E5069BD90707D5D8F84000854937
:10255000FEF7AEFB069BC8F840009A0707D5D8F8EF
:1025600044008049FEF7A4FB069BC8F844005807C6
:1025700007D5D8F848007B49FEF79AFB069BC8F8B8
:102580004800190707D5D8F84C007649FEF790FBAC
:10259000069BC8F84C00DA067FF52CAFD8F850003F
:1025A0007049FEF785FBC8F8500023E798F806301D
:1025B000012B7FF423AF069B042B3FF41FAF252490
:1025C000B5E5079B022B7FF4F5AE98F80130502B50
:1025D0003FF4F0AE002B3FF4EDAE19F0010F3FF4E5
:1025E00068AFE7E6079B032B5BD0069A002A58D01A
:1025F0005B4998F80430D1F858A0002B40F0408196
:10260000352D134600F00E81D10740F1D481D8F862
:1026100040101998FEF744FA514B596CFEF740FAF6
:10262000069BC8F840009A0740F1C081D8F84410D2
:102630001A98FEF735FA4A4B996CFEF731FAC8F84A
:102640004400069B5B0740F16C81D8F848101B984A
:10265000FEF726FA424BD96CFEF722FA5146FEF7F6
:102660001FFAC8F84800069B180740F1CE81D8F839
:102670004C101C98FEF714FA394B196DFEF710FA3E
:10268000C8F84C00069BD90640F146811D99D8F840
:102690005000FEF705FA324B596DFEF701FAC8F803
:1026A00050001E2D00F02A81352D00F0DD801C2DFC
:1026B00000F0CB8198F80150502D00F0CE814FF002
:1026C000000A079B022B00F04081099A002A00F0C3
:1026D000A58029F021091FFA89F3079919B123F47C
:1026E000F8491FFA89F3002B00F0538124241EE5DA
:1026F000069B002B3FF4FFAE19F0500F3FF420AFC4
:10270000D8F83000FEF7D6FCC0B206283FF688AEF7
:1027100098F82830142B06D0022B7FF407AD19F05F
:10272000800F7FF403AD29F050091FFA89F90028C2
:1027300000F0F08401385FFA80FA0B49504605F04A
:10274000EBF8002840F07C840724F0E41824EEE441
:1027500029F040091FFA89F938E62624E7E400BF8A
:10276000D41000203333CB4144110020AC4B9D6D7D
:10277000069BD90740F1E480A94B1999D869FEF767
:102780008DF9D8F84010FEF789F9C8F84000069B8B
:102790009A0740F1D080A24B1A99186AFEF77EF989
:1027A000D8F84410FEF77AF9C8F84400069B5B0796
:1027B00061D59B4B1B99586AFEF770F9D8F8481001
:1027C000FEF76CF92946FEF769F9C8F84800069B40
:1027D0001D0740F1AB80924B1C99986AFEF75EF999
:1027E000D8F84C10FEF75AF9C8F84C00069BD806EA
:1027F00040F1CA808A4B1D99D86AFEF74FF9D8F884
:102800005010FEF74BF9C8F850004FF0000A98F846
:102810000150502D7FF455AF1F2488E4814B09EA05
:1028200003035AE7DA0704D47D4BDB69C8F840306C
:10283000069B9D0704D47A4B1B6AC8F84430069B5C
:10284000580704D4764B5B6AC8F84830069B1907D2
:1028500004D4734B9B6AC8F84C30069BDA0603D449
:102860006F4BDB6AC8F8503098F80150012D7FF6A5
:1028700026AF1E245BE46A4BDB6CC8F84830A6E741
:10288000352D1346CED0DB0740F1DA80644BD8F803
:102890004010D869FEF704F9C8F84000069B980775
:1028A00040F1C9805E4BD8F84410186AFEF7F8F87A
:1028B000C8F84400069B590740F1B880584BD8F837
:1028C0004810586AFEF7ECF8C8F84800069B1A074B
:1028D00040F1A080524BD8F84C10986AFEF7E0F80F
:1028E000C8F84C00069BDB0616D54D4BD8F85000B7
:1028F000D96AFEF7D5F8C8F85000D2E64A49072051
:1029000005F00AF800283FF41FAF069B002B58D1B2
:10291000099A9A460793D9E6414BDB6AC8F85030CA
:10292000BFE63F4B5B6AC8F848309CE63C4B1B6DEA
:10293000C8F84C305AE73A4B9B6CC8F8443035E73E
:10294000374B5B6CC8F8403021E7ADB10021D8F8B7
:102950001000FEF741FB00287FF4ABAD8C2D00F09A
:10296000888200F27E82022D00F04982032D00F061
:102970004882012D7FF4A9AE069B099A002B079B84
:1029800008BF00230793A1E6254B5B6DC8F85030C4
:102990003BE7169317931893002A65D024F0490457
:1029A000002C00F085831024FFF7C1BB1C4B1B6A71
:1029B000C8F8443045E61A4BDB69C8F84030134686
:1029C00031E6DD0704D4164BDB69C8F81430069BEA
:1029D000980704D4124B1B6AC8F81830069B590795
:1029E00004D40F4B5B6AC8F81C30069B1A0704D44A
:1029F0000B4B9B6AC8F82030069BDD063FF505AF00
:102A0000074BDB6AC8F82430FFE6054B9B6AC8F821
:102A10004C3037E6024B9B6AC8F84C3062E700BF87
:102A2000D4100020DEFCFFFF44110020A44B5B6AA1
:102A3000C8F848304AE7A24B1B6AC8F8443039E767
:102A40009F4BDB69C8F8403028E79E49062004F018
:102A500063FF00283FF478AE57E7069B002B7FF416
:102A6000DBAE099A9A4631E6974B93F868309C079B
:102A700014D598F80130013B022B04D9099B43F08F
:102A80004003DBB20993069B1BB1079B022B00F0AE
:102A9000AE818B4B5B7A102B00F02A83099B03F0ED
:102AA00040048749D8F82C2098F802308A614B708E
:102AB00013B108238DF86030D8F81030804AD8F868
:102AC0003850D068294613611693FEF785FA00281E
:102AD00000F0A880099B980600F1A480784B587AF2
:102AE00004B9179598F80A3098F83C207449834245
:102AF0000A7507D01846179905F0AEFA98F80A300B
:102B00006F4A53726E4A9DF86030527A98F8090005
:102B100013436B4A8DF86030127A824209D0FFF776
:102B2000BBF898F80930664A13B1127A1343644A25
:102B30001372634A9DF86030117A98F800200B43B5
:102B4000042A8DF8603000F0458198F803305C4924
:102B500098F805208B70079B0A71032B00F02481E5
:102B6000574B98F807609B79B34209D0574D19AC81
:102B70000FCC0FC5236805F83A6C2B6006F0D4FE25
:102B800098F8003098F804204D49262BCA7000F0C0
:102B900092807ED95C2B73D0662B65D0282B5ED0BB
:102BA00098F80130464A502B137003D0079A022A36
:102BB00000F0968098F80840414BDC71002C3FF4FF
:102BC000B6AA03F02FFB3E4BDB79032B3DD001214E
:102BD000002464223A483E4B01701978047102299E
:102BE000C47044708471447204721A725A729A7278
:102BF00010D000F13001204604F08EFE00283FF492
:102C0000A3AD06F091FE2046002105F09BF9204679
:102C1000FFF71EF8082003F029FE0024284BDC7182
:102C2000FFF785BA264B587A60B1099B190609D47B
:102C3000002C00F0D480002105F00EFA204BD8F8CB
:102C40003850587A1E4BDD604AE7214B1B78022B27
:102C5000E3D0082006F038FF03F0F2F8DDE71D4965
:102C6000072004F07DFD9BE700231B4AA2F14401ED
:102C70004B6453609360D360136106F055FE8FE799
:102C8000164D154C0FCD0FC42B68236006F04CFE7B
:102C900086E71C2B3ED01E2B3CD00A2B80D1094945
:102CA000504604F05DFD064B9B7953457FF478AFA9
:102CB000044D064CE6E70749062004F051FD6FE796
:102CC000D4100020441100204C13002004110020D7
:102CD00088110020F0100020181100207011002031
:102CE000012B5AD0002B4BD0023B012B31D99DF840
:102CF0006030AB4C43F00403099A16A920468DF8C6
:102D0000603001F031F9E0B9A64D0FCC0FC5236852
:102D10002B604FE79DF8603043F001038DF8603081
:102D2000079B1BB116A99E4800F0B0FE9E4D9D4C1E
:102D300016A99D4800F0AAFE0FCD0FC42B68236092
:102D40002EE701287FF436AF9849964806F0F6FD45
:102D500030E7099B924CC3F3800304930F9B914D82
:102D600003930E9BD8F8346002930D9B16A9019330
:102D70002A46A4F12C032046009600F0BDFEC4E7CD
:102D80009DF86030864C43F0010316A920468DF86B
:102D90006030844D00F07AFEB7E7814C16A92046DA
:102DA00000F074FE7F4DB0E798F806304B7113B910
:102DB0000023C8F84830D8F848407D4B2146986D2C
:102DC000FEF70AF900287FF4CBAE794B9C6506F03C
:102DD000ABFDC5E6D8F8300001F090F8B5E629461D
:102DE00005F03AF9724BD8F83850587A2AE7099B1F
:102DF00063F07F03DBB2099303F0400451E60A9BC2
:102E00000993069B002B3FF476AB0C9A134202D138
:102E10002024FFF78CB9664B07F1100203EB870300
:102E2000D96958F82200FDF739FE614B06F110020E
:102E300003EB86038346D96958F82200FDF72EFE7E
:102E400019F080050A905BD029F0800914225449BA
:102E500054481FFA89F908F067F818BB2124FFF7D6
:102E600066B98E2D05D002D38F2D7FF42EAC0B9B2F
:102E7000099305F17203DBB2012B04D8099B43F0DF
:102E80000803DBB20993069B002B3FF434AB1422FA
:102E90004349444808F048F80028DFD0099B03F074
:102EA000010213E498F80330012B06D1D8F834005E
:102EB0004049FDF7FDFEC8F83400D8F83410084644
:102EC000FDF7F6FE4FF08141FDF7F2FE594605464B
:102ED0005846FDF7EDFE01462846FDF7DFFD0546A5
:102EE0000A980146FDF7E4FE01462846FDF7D6FDA7
:102EF00000210546FEF77AF848B12224FFF717B9FA
:102F0000089B0C9A134257D12324FFF710B9284687
:102F100008F03AF90A990546584601F0B9F905F161
:102F2000004501462846FDF777FF98F80130054631
:102F3000032BD8F8343008BF00F1004500211846B3
:102F40000893FEF753F8089B28B103F1004305F1FD
:102F50000045C8F834300A992846FDF7A9FE014615
:102F60005846FDF79BFD4FF07C51FDF7A1FE04375D
:102F700008EB8707786059462846FDF799FE0A99BD
:102F8000FDF78EFD4FF07C51FDF792FE0436099B54
:102F900008EB860603F001027060FFF797BB00BFE5
:102FA00070110020F010002044110020B411002006
:102FB000D41000203333CB4198F8033029F00E09A8
:102FC000012B1FFA89F900F0A980351D08EB850552
:102FD00069680A98FDF762FD0646043708EB870723
:102FE00079685846FDF75AFD314601F051F9696894
:102FF0000646786801F04CF9074630463946C8F86D
:103000003470FDF74BFD20F0004528465349FEF78C
:103010000BF800283FF442AF4FF07C512846FEF7F2
:1030200003F800287FF41AAF4D493846FDF740FEFB
:1030300001462846FDF7F8FF00287FF40FAF2DE783
:1030400098F8283001221093464BDFF828B19B6D89
:10305000129411930023139714465F46B3461E46FD
:10306000414D069B43FA06F1C80704D5109B142B6B
:1030700009D0E96A2960052C15D00134E4B2013683
:1030800004370435EDE7B96A3868FDF707FDE96AEA
:10309000FDF704FD022E2860EDD11199FDF7FEFC2D
:1030A000C8F81C00E9E7129C139F5E46FFF7AFBB10
:1030B00098F80030352B02D0002B7FF474AC294AED
:1030C000284B117A5B7AD2680B4316A827498DF8F2
:1030D0006030179200F052F8044600287FF427A8C9
:1030E000234E244D0FCE0FC533682B60FFF71FB85A
:1030F0001C4B099A1B78013B022B134629D812F06E
:1031000040043FF4CEAC43F02003DBB2099303F05C
:103110004004C6E498F807A0FFF70FBB124B0B96CC
:1031200026461C46144A089B43FA05F111F0010F8C
:1031300005F1010506D0114620680C92FDF7B8FD97
:103140000C9A2060052D04F10404ECD134460B9E4A
:103150003BE712F040047FF4A4ACD4E70AD7A33BCA
:103160006F12833AD4100020441100203011002047
:1031700070110020F01000203333CB4170B50546AC
:10318000037A086943F00403124A28602B7292F80C
:10319000683001F140049B0606D5204606F0F8FB96
:1031A00010B10F24204670BD0B4E2046294600F07A
:1031B0006DFC347814B10024204670BD01F0A0FAF3
:1031C0000028F8D02023337005F0DEFB04F0FAFF6E
:1031D000204670BD4C1300208811002030B501211D
:1031E00085B009204FF47844FEF76EFB4823032294
:1031F00004A9234D21F8104D22488DF803308DF895
:103200000220FEF7FDF895F868301B0706D44FF44E
:1032100080721D4BC3F8842005B030BD642001F0DE
:1032200027F80C210120FEF7E9FA0D210120FEF715
:10323000E5FA0E210120FEF7E1FA0F210120FEF749
:10324000DDFA0B210120FEF7D9FA95F8683000224B
:1032500013F0400F14BF08210C21012302A88DF8A0
:103260000D108DF80C208DF80E300294FDF77EFFC6
:10327000064B04A840F80C3DFDF746FF05B030BDF5
:103280004C130020000C014000E100E02802020184
:103290004FF48072014BC3F88420704700E100E0D6
:1032A00010B51748FEF762FA164B93F868305B06C4
:1032B0005CBF80F4784080B200B3134A138854880E
:1032C000184207BF0023022103210123204208BF27
:1032D0001946948841F00403204208BF0B46D48865
:1032E00003F0FF03204243F0080118BF0B46118989
:1032F00043F01002084214BF1046184610BD00BF2C
:10330000000C01404C130020D8C2000808B54FF44F
:103310008050FDF769FF00283BD14FF40050FDF7C6
:1033200063FF88BB4FF48040FDF75EFF38BB4FF46E
:103330000040FDF759FFE8B94FF40060FDF754FF76
:1033400098B94FF48071154A154BC2F884111B7857
:10335000012B02D0134B1B7803B108BD00F098FE7F
:10336000BDE80840012006F0C3BB4FF40060FDF744
:1033700049FFE6E74FF40040FDF744FFDCE74FF478
:103380008040FDF73FFFD2E74FF40050FDF73AFFD2
:10339000C8E74FF48050FDF735FFBEE700E100E0DD
:1033A00088110020C81100202DE9F04FDFF8B88205
:1033B00097B098F8013013B117B0BDE8F08F074609
:1033C0000625A24C0890616820680BAA03C22689D2
:1033D00007F0010410930E930F9304F0FF0316807F
:1033E0008DF840500993002C40F0F9804FF000090F
:1033F000974F089BC3F34003079353B19549386C2B
:10340000FDF756FC054601464846FDF703FE00B9A8
:10341000A946089BC3F38003069353B18D49786C8A
:10342000FDF746FC054601464846FDF7F3FD00B9A9
:10343000A946089BC3F3C003059353B18549B86CF3
:10344000FDF736FC054601464846FDF7E3FD00B9A9
:10345000A946089BC3F30013049353B17D49F86C4C
:10346000FDF726FC054601464846FDF7D3FD00B9A9
:10347000A946E3B203933B6F4A461946042301244D
:103480008946DFF8DCA1744D744E0193744911A88C
:10349000029206F053FA039B029A002B00F08C81F3
:1034A0000021B7F86A30CAF80010DB0740F19A81B2
:1034B000002C40F09A81119202210120BDF82CB01D
:1034C000079B83B10023B7F86A00CAF8043080076D
:1034D00040F18181002C40F0818112920846BDF8B4
:1034E0002EE04BEA0E0B069B8BB10023B7F86A1057
:1034F00001304907C0B2CAF8083040F17A81002C87
:1035000040F07A811392BDF830104BEA010B059B15
:103510008BB10023B7F86A100130CAF80C300B07E2
:10352000C0B240F15181002C40F051811492BDF89D
:1035300032104BEA010B049B8BB10023B7F86A10E1
:103540000130C906C0B2CAF8103000F139810CB997
:1035500002F100421592BDF834204BEA020BFDF750
:103560004FFB07F011FEA8F806B001464846FDF7EC
:103570009FFB0EA90E9011A801F0B0F9042288F863
:10358000042005F001FA04F01DFEDFF8E090002CA5
:103590006ED105F0F9F92B7813F0340F40F0C380A9
:1035A00040F60F031BEA030FF1D105F063F8B7F8FB
:1035B000740000F05DFE84F00103FCB92949B86F86
:1035C0000293FDF775FB019B0246591E11F0FF03A4
:1035D0000193D7F86C90029B19D01C4656E71C4FFC
:1035E0001C49F86BFDF764FB00218146FDF712FDD5
:1035F00000287FF4FEAE4FF00009FAE6019AD7F8F2
:103600007090511E11F0FF01BA6F0191E5D1099B35
:1036100013B10023CAF80030079B13B10023CAF886
:103620000430069B13B10023CAF80830059B13B180
:103630000023CAF80C30049B13B10023CAF81030E1
:10364000002388F8043017B0BDE8F08FE4C200080A
:103650004C1300200000C0BF9D110020D8C20008FC
:10366000B41100200000A04088110020000C01408F
:103670004846FEF77BF897F868305B065CBF80F43D
:10368000784080B2002864D033887288184214BF12
:10369000012300231042B28818BF43F002031042F6
:1036A000F28818BF43F004031042328918BF43F078
:1036B00008031042BDF82C2018BF43F010031BEA8A
:1036C000020F03D0D80748BF2BEA020BBDF82E200B
:1036D0001BEA020F03D0990748BF2BEA020BBDF883
:1036E00030201BEA020F03D0580748BF2BEA020B19
:1036F000BDF832201BEA020F03D0190701D52BEACF
:10370000020BBDF834201BEA020F03D01B0918BFBF
:103710002BEA020BA8F806B005F036F92B7813F067
:10372000340F3FF43DAF95F800905FFA89F919F036
:10373000100F65D119F0200F0DD18CB119F0040FC5
:1037400062D1364B1B78002B62D1042006F0C6F9FB
:103750002BE70346D5E7072006F0CAF9002CEDD188
:103760002F48FEF703F897F868305B065CBF80F4DB
:10377000784080B20028E4D033887288184214BFA1
:10378000012300231042B28818BF43F00203104205
:10379000F28818BF43F004031042328918BF43F087
:1037A00008031042089A18BF43F010031A42C8D009
:1037B000082006F09DF9C4E79B46184601217FE6E4
:1037C000002C3FF4C7AEC3E6002C7FF4AFAE02F18D
:1037D00000411491ABE6002C7FF47FAE02F1004073
:1037E00012907BE6002C7FF466AE02F10043119349
:1037F00062E6002C7FF486AE02F10041139182E66E
:10380000062006F075F995E7092006F071F998E7AA
:1038100000F03EFC02F014FBCEE500BFC811002012
:10382000000C014010B506F0B3F8C8B101230D4CEF
:103830002078E370082808D000F02AFC022006F067
:1038400057F9BDE8104002F0FBBA06F03DF902E07E
:103850002378002BF0D002F0F3FA6378002BF7D036
:1038600010BD00BF88110020F0B5074687B04FF4A7
:103870004070FDF73FFC00250126252301A88DF8A7
:1038800004308DF805508DF80760FDF73DFC31469A
:1038900044F20500FEF718F84FF4007118220323D4
:1038A0001C4CADF80010204669468DF803208DF8B9
:1038B0000230FDF7A5FD4FF48062042369462046DF
:1038C000ADF800208DF80330FDF79AFD0C2304F5C8
:1038D0004054ADF80C50ADF80E50ADF81050ADF8A6
:1038E0001450ADF81230A38920469BB243F00C036C
:1038F000029702A9A381FEF7CDF83246204640F296
:103900002551FEF733F931462046FEF721F907B07D
:10391000F0BD00BF000801402DE9F04F012183B048
:103920001020FDF7D1FF4FF400501023022202A90E
:1039300021F8040D00F1804000F570408DF807304B
:103940008DF80620FDF75CFD4FF4E130FFF78CFFAA
:10395000FDF75EFCFEF7CAF92C494FF064080A68CF
:103960002B4D22F004020A6003F0DCFD04F04EF956
:1039700004F034FF05F072FD00210C46254A26486C
:1039800092F86820254EDFF8A0B0DFF8A0A0DFF89D
:10399000A090234FC2F30012016041608160C160BA
:1039A0000161204B8BF80040AC608AF800402C602D
:1039B00089F800402A701C706C60EC602C6185F8FE
:1039C000088085F8098085F80A8034607460B460E6
:1039D000F46034613C7003F0A3FEFEF725FA04F0B6
:1039E000B7F9FEF7E3F8FFF7F9FB01F08DFC00F003
:1039F00045FE04F03FFE01F00BFAFEF72BFA02F051
:103A000093FF02F04BFE2A78CBE700BF10E000E006
:103A1000881100204C130020B4110020A0110020B8
:103A20009C110020841100209E1100209D11002077
:103A3000C811002042F22831094B30B4002501247E
:103A40001A4601FB00F058609D601C60136803F08B
:103A50000113012BFAD0002330BC13609360704730
:103A600010E000E010B5074C4FF4005122780648F2
:103A7000FDF788FE237813F1FF3318BF012323706D
:103A800010BD00BF1400002000100140F8B5174D14
:103A90000E4695F8683007469906154C04D52378EC
:103AA000202B0AD0FFF7BEFE2378022B05D1F8BDEC
:103AB00000F054FE38B101F097FC02F0C1F96378D0
:103AC000002BF5D0F3E73846314600F007FF002819
:103AD000EDD195F868309A07E9D5337ADB06E6D55B
:103AE00071681020BDE8F84004F0B6BA4C1300200D
:103AF00088110020000000002DE9F04F1F4691B012
:103B00009DF86C40834653F82450A300D6180F90BC
:103B10000B91284652F824100296FE1807920C9634
:103B2000FCF7BEFF9DF87060079A57F82680B30037
:103B30001F4452F8261082461A44039040460492CD
:103B40000D97FCF7ADFF5146814605905BF82400C8
:103B5000FCF7A4FF494604465BF82600FCF79EFFED
:103B600005F10045064621462846FDF7A1F808F173
:103B70000048074631464046FDF79AF80146384668
:103B8000FCF78EFF314681462846FDF791F8214625
:103B900006464046FDF78CF801463046FCF77EFFAE
:103BA000494607F0EFFA9DF8787006461A9C9DF892
:103BB0007490002F00F0D080FCF72EFCA8A3D3E96E
:103BC000002382468B46FCF701FF002840F0E98085
:103BD000DFF8B0B22146DBF85C702046FCF760FFEE
:103BE0003946FCF75BFF3946FDF762F807F0CCFA7F
:103BF0004FF07C5107462046FDF75AF83146FDF755
:103C000057F8394620F00040FDF706F907F018FA9A
:103C1000FDF750FA83B20193002B00F06B810B9BF0
:103C200001981C7A220700F1AE80FCF7EDFF0746F1
:103C300039464FF07E50FDF7EFF804460146304616
:103C4000FDF736F8079B0F9A53F8291007460E9098
:103C500052F82900FCF722FF2146FDF729F83946E2
:103C600006903846FDF724F8014604464FF08040A0
:103C7000FCF714FF804906463846FDF719F821463F
:103C800007467E48FCF70AFF01463846FDF710F864
:103C9000079B08904FF07C51304603EB8907FDF7F6
:103CA00007F8019B0990012B00F0248101264FF0B9
:103CB0000009734CB9F10B0F00F2E6802946089811
:103CC000FCF7F6FF414682460998FCF7F1FF0146F2
:103CD0005046FCF7E5FE294682460998FCF7E8FFC6
:103CE000414605460898FCF7E3FF01462846FCF7E5
:103CF000D5FED046054609F101095FFA89F9039915
:103D00002846FCF7CDFE029B059918604046FCF75B
:103D1000C7FE049B069918603868FCF7C1FE38603E
:103D20009BF868309B0605D52378202B0CD007988C
:103D3000FFF778FD2378022B06D151E000F00EFD4D
:103D4000002839D001F050FB02F07AF86378002B9C
:103D5000F4D011B0BDE8F08FFCF75EFB42A3D3E9CD
:103D6000002382468B46FCF727FE00283FF430AF45
:103D70003FA3D3E9002350465946FCF7EFF9FCF77F
:103D800039FE064624E7FCF73FFF0B9B014607463A
:103D90001868FCF78DFF0B9B24F0080418601C7258
:103DA00046E733A3D3E9002350465946FCF7D4F93C
:103DB000FCF720FE06460BE7DDF82CA007985146DD
:103DC00000F08CFD60B99BF86830980708D59AF828
:103DD0000830D90604D50B9B1020596804F03CF933
:103DE0006378002BB5D10136019AB3B29A423FF6FF
:103DF00061AF9BF86830990605D52378202B0FD04A
:103E00000F98FFF70FFD2378022BA2D002F018F8CD
:103E10006378002B9DD100F0A1FC50B101F0E4FAD1
:103E200002F00EF86378002B93D100F097FC002885
:103E3000F4D10B9C0F98214600F050FD002888D14A
:103E40009BF868309A0784D5237ADB0681D5102049
:103E50000B9B596811B0BDE8F04F04F0FDB800BFEE
:103E60008DEDB5A0F7C6A0BE8DEDB5A0F7C6A03EFE
:103E7000182D4454FB211940ABAA2A3E0000C04033
:103E8000881100204C1300203046FCF7BDFE0E992F
:103E9000FCF70EFF054607F09FF88046284607F01E
:103EA0003BF90C9B82461B68404603F100431946D0
:103EB0000A930D9BD3F80090FCF7FAFE494605469D
:103EC0005046FCF7F5FE01462846FCF7E9FD0A9B43
:103ED000054619465046FCF7EBFE494682464046E9
:103EE000FCF7E6FE01465046FCF7D8FD4FF000090E
:103EF000804604E7004C7CE788110020074B1B78C4
:103F0000022B09D010B5044602F08CF92046BDE81A
:103F10001040002100F074B9704700BF88110020E4
:103F200010B50446FFF7B4F9B4B12046FFF73CFAE8
:103F300001F086FF0A4B5B786BB9FDF78BFF00F051
:103F400067FF4FF47840FDF75DF94FF48072054B41
:103F5000C3F884215A6010BD0120FFF725FAE7E776
:103F60008811002000E100E02DE9F041434C237866
:103F7000022B0CD017460E46054602F053F994F872
:103F80000180B8F1000F05D00220BDE8F0810020CB
:103F9000BDE8F081C7F3C00084F8058001F0DAF9CC
:103FA00001F0ECF940B1042005F0A2FD01F048FF5A
:103FB000404601F0CFF9E7E7DFF8D08098F86830A5
:103FC000980605D52378202B0BD02846FFF72AFC2E
:103FD0002378022B05D109E000F0C0FB70B301F09B
:103FE00003FA01F02DFF6378002BF5D00123244D57
:103FF00002202B7005F068FD01F022FF6378002B92
:10400000C2D12378002BF7D12B78012B28D00123A4
:104010006371002318462B7001F09CF901F010FF2A
:1040200004F028FB00F02AFB00F0F2FE02F06EFE26
:104030006079003018BF0120BDE8F0812846314684
:1040400000F04CFC0028D1D198F868309907CDD504
:10405000337ADA06CAD57168102003F0FDFFC5E790
:10406000FB0606D5074F084E0FCF0FC63B683360DF
:10407000CFE7052005F03CFDCBE700BF881100200D
:104080009E110020B4110020A01100204C1300202C
:1040900008B5144B1B78DB0600D508BD102005F0D1
:1040A00013FD03F0EFFEFDF7C5FD0F4A137813F083
:1040B0002C0F08D0042B0CD0032005F019FDBDE80F
:1040C000084004F0BFB8127912F0060FE5D0042BB7
:1040D000F2D1064B1B78002BF1D1062005F008FD2C
:1040E000EDE700BF9D11002088110020C8110020BD
:1040F0002DE9F04F0C7883B0035D04442D2B65D07F
:104100002B2B68D04FF00008651C0026344637463C
:10411000B6460CE00134E4B2082C11D80EB1013FD0
:104120007FB20EEB8E0E03EB4E0E15F8013B303BCB
:10413000DBB2092BEED9FE2B07D136B90126F4E705
:10414000002EF2D101377FB2EFE7002C37D0824644
:10415000704601919146FCF753FD00218346FCF720
:104160003BFF08BB791C12DA3E46224C58462146DA
:10417000FCF79EFDB31C5EB2721C8346F6DBFFB2F9
:10418000C7F1FE0303F0FE031F4402377FB27B1C1E
:1041900026D04FB1184C58462146FCF789FD013F07
:1041A0007FB28346002FF6D1B8F1000F0BD1012466
:1041B000A5EB0A05019B013DC9F800B01D70204622
:1041C00003B0BDE8F08F0BF1004BF0E7A51C63785E
:1041D0004FF0010899E74FF000086378A51C94E7B9
:1041E00058460649FCF764FD8346B8F1000FDED05F
:1041F000E9E700BF0AD7233C00002041CDCCCC3DED
:1042000070B50E461849FCF753FD06F0A5FEFCF705
:1042100051FF80B2B0B1154D6B789BB9441EA4B26A
:104220008EB14FF6FF7608E0013C3220A4B2FFF7D2
:1042300001FCB44206D06B78ABB901F0DFF8AB7883
:104240009B07F1D570BD4FF6FF7601E06B784BB957
:10425000013C01F0F5FDA4B23220FFF7EBFBB442C4
:10426000F4D1EFE770BD70BD0000A04188110020BF
:1042700060B138B54FF6FF75441EA4B2013C012071
:10428000A4B2FFF7D7FBAC42F8D138BD704700BFEE
:1042900038B50D460146FCF70BFD29460446284675
:1042A000FCF706FD01462046FCF7FAFBBDE8384066
:1042B00006F06ABFF8B5044647680021384626680C
:1042C000A568FCF789FE002862D139463846FCF71C
:1042D000EFFC002107462846FCF77EFE00285ED151
:1042E00029462846FCF7E4FC01463846FCF7D8FB93
:1042F000002105463046FCF76FFE002855D13146B7
:104300003046FCF7D5FC01462846FCF7C9FBE568BA
:10431000074600212846FCF75FFE002843D12946C6
:104320002846FCF7C5FC3946FCF7BAFB2569074669
:1043300000212846FCF750FE002832D129462846A5
:10434000FCF7B6FC3946FCF7ABFB06F01DFF074651
:1043500001464FF07E50FCF75FFD31460546FCF705
:10436000A7FC294620606068FCF7A2FC2946606033
:10437000A068FCF79DFC2946A060E068FCF798FC6B
:104380002946E0602069FCF793FC20613846F8BDBF
:10439000002128460027FCF71FFE0028A0D000219E
:1043A000A3E70020CEE70020BDE70021ACE700BF77
:1043B000F8B50D680C46064600212846FCF70CFEB1
:1043C000002852D129463068FCF726FD20F0004530
:1043D00028462B49FCF714FE002846D067680021C8
:1043E0003846FCF7F9FD58B939467068FCF714FDFA
:1043F00020F0004739462846FCF702FE00283DD051
:10440000A76800213846FCF7E7FD50B93946B06887
:10441000FCF702FD20F0004739462846FCF7F0FD86
:1044200050B3E76800213846FCF7D6FD50B939464D
:10443000F068FCF7F1FC20F0004739462846FCF70D
:10444000DFFDB8B1246900212046FCF7C5FD50B955
:1044500021463069FCF7E0FC20F000442146284664
:10446000FCF7CEFD18B12846F8BD054DB6E7254648
:104470002846F8BD3D46E5E73D46D2E73D46BFE765
:10448000FFFF7F7F2DE9F04F774B83B01B780093C0
:10449000002B75D0754A5C1E92F80080E4B2A045EE
:1044A00001926AD0724DC4EB041705EB8707B96A15
:1044B000786AFCF7FDFB0146FCF7F2FAD7F820B06A
:1044C0008146594607F11C0AFCF79AFD00B9D94606
:1044D000CAF800904FF0230B002C6FD0009B023BDA
:1044E0005FFA83FB6AE0604B1B780093CBEB0B1306
:1044F0000BF10104E4B205EB830A019B242C08BFF5
:10450000002493F800B02EE0DAF81C90D7F81C8055
:1045100048464146FCF76AFDA8B1DAF82810DAF8F7
:104520002400FCF7C5FB0146FCF7BAFA4946FCF744
:10453000B7FA814601464046FCF776FD18B1C846F9
:10454000A346C7F81C90321B05EB8202106A414655
:10455000FCF742FD631C002818BFA346DCB2242CE4
:1045600008BF0024BA46009B2601371B9C4205EB7E
:104570008707C9D1019B83F800B003B0BDE8F08F75
:104580003A4B93F800800193B8F1230FF5D0384DE2
:10459000D5F85818D5F85C08FCF78AFB0146FCF7FB
:1045A0007FFAD5F8547804463946FCF729FD00B95E
:1045B0003C464FF0220B2F4FC5F85048D84545D008
:1045C000DFF8B49029E05FFA82FB99F800205A45A1
:1045D00033D0C6EB061605EB860ADAF82060DAF867
:1045E0001C003146FCF7F8FC98B9DAF82810DAF824
:1045F0002400FCF75DFB0146FCF752FAF969FCF771
:104600004FFA074601463046FCF70EFDD8B1CAF80E
:104610001C70C34527463FF466AFCBEB0B140BF180
:10462000FF3205EB84045E46BBF1000FCBD14FF0A7
:10463000230B99F800205A45CBD104F08FF9019B48
:1046400093F80080C5E7CAF81C60E2E70A4A1278CE
:104650005A457FF44BAF04F081F9034B1B7800936C
:10466000019B93F800B041E7600A0020610A002036
:10467000F0010020240A0020620A002038B52C2214
:104680000021074806F05FFC00230121054D064C80
:104690000648074A2B7023700370117038BD00BFA5
:1046A000640A0020620A0020600A0020610A0020DB
:1046B000630A002009490A4B0A781B7893420CD000
:1046C000531CDBB2242B08BF002310B405480B7029
:1046D0000478944208BF037010BC7047620A00203F
:1046E000600A0020610A0020034B04481B78C3EBDA
:1046F000031300EB83007047600A0020F0010020E4
:10470000064B074A1B7812789A421DBF0548C3EB37
:10471000031300EB83000020704700BF620A0020F3
:10472000600A0020F0010020094B0A4A1B78127829
:104730000133DBB2242B08BF00239A4206D0064A7D
:10474000C3EB031302EB8303D86970470020704763
:10475000620A0020600A0020F0010020044A054B94
:1047600010781B78C01AB0FA80F04009704700BF7B
:10477000620A0020630A002038B5837E456BDA07A1
:1047800014D5164B587AFCF73FFA1549FCF790FA06
:104790002946FCF78DFA04464FF07E512046FCF77F
:1047A00039FC08B94FF07E54204638BD5B070446FB
:1047B0000BD40A4B187AFCF727FA0949FCF778FA68
:1047C00001462846FCF774FA0546246B2946204624
:1047D000FCF716FC0028DFD12C46DDE7881100200D
:1047E0000AD7233C2DE9F04F354D364A364B83B07E
:1047F000287A147893F800B0FCF706FA3349FCF7EE
:1048000057FA0190687AFCF7FFF93049FCF750FA43
:104810002F4F0090DFF8C0A04FF07E5923E04146B3
:104820000098FCF745FA054649462846FCF7F2FB96
:1048300000B94D4629463846D6F82C80FCF7D6FB01
:10484000002831D039463846FCF732FA074641464F
:104850003846FCF7E9FB20BB37620134E4B2242C74
:1048600008BF00242F465C4524D025012E1B0AEBEF
:104870008606B37ED6F83480DA07D0D45B0704D43A
:1048800040460199FCF714FA80462D1B0AEB85057A
:104890002D6B41462846FCF7B3FB0028C4D14546A2
:1048A000C2E7C6F82080D8E729462846FCF700FA78
:1048B0000746CCE7074B9F6203B0BDE8F08F00BF0F
:1048C00088110020620A0020600A00200AD7233CD9
:1048D000FFFF7F7F640A0020F00100202DE9F04FE8
:1048E0007E4B8B461E787E4D3701A7EB060805EB05
:1048F000880897B082463C220021404606F023FB00
:104900009BF80830DBF804209C074CBFDFF8D8E1A7
:10491000DFF8D0E188F81A30C8F8382007ACBEE8D4
:104920000F000FC4DFF8C491DEF80030D9F8002082
:10493000DAF80010236010460192FCF7B9F906F08E
:10494000BFFB8646B91B079889006B18AEEB0000C9
:104950005A6980EAE074A4EBE07494426C5038BF6A
:1049600014465C610093CDF808E0FCF74DF9019A1C
:104970001146FCF751FA00210C90FCF737FB009B25
:10498000002840F04F81D9F80420DAF804101046CE
:104990000192FCF78DF906F093FB01460898BB1BCA
:1049A000081A80EAE07EAEEBE07E744538BF7446BC
:1049B00005EB8303C3F804E05C6100930391FCF70B
:1049C00023F9019A1146FCF727FA00210D90FCF714
:1049D0000DFB009B002840F03181D9F80820DAF85F
:1049E000081010460192FCF763F906F069FB0146D6
:1049F0000998BB1B081A80EAE07EAEEBE07E7445A6
:104A000038BF744605EB8303C3F808E05C6100938C
:104A10000491FCF7F9F8019A1146FCF7FDF9002121
:104A20000E90FCF7E3FA009B002840F00181D9F8D2
:104A30000C20DAF80C1010460192FCF739F906F058
:104A40003FFB01460A98BB1B081A80EAE07EAEEBEA
:104A5000E07E744538BF744605EB8303C3F80CE071
:104A60005C6100930591FCF7CFF8019A1146FCF7C1
:104A7000D3F900210F90FCF7B9FA009B002840F011
:104A8000CB80D9F81030DAF8101018460093FCF7F4
:104A90000FF906F015FB02460B98A7EB060A101A51
:104AA00080EAE071A1EBE0718C4238BF0C4605EB67
:104AB0008A0ACAF81010CAF814400692FCF7A4F843
:104AC000009B1946FCF7A8F900211090FCF78EFA1C
:104AD00070B9B4B9204617B0BDE8F08F600A002065
:104AE000F0010020640A0020B41100204C130020C3
:104AF0009F4ABAF8183012891343AAF81830002CCC
:104B0000E8D00CA8FFF7D6FBBC1B05EB8404A06221
:104B10000CA99848FFF74CFC0CA960629648FFF777
:104B200047FC94F81AA020631AF0010F00F08C8063
:104B30006063924B924A1B7812789A4203D01AF023
:104B4000020F00F08C800022BB1B05EB8303DA61AF
:104B5000DA62BB1B05EB83039A7E900700F1F080BD
:104B6000D1075C6B00F1E08053070AD4854B187ABB
:104B7000FCF74AF82146FCF79BF88349FCF798F8C4
:104B80000446BE1B05EB86052E6B21463046FCF71E
:104B900037FA00B926464FF07E513046FCF73AFA14
:104BA00008B94FF07E56794F3146BD6AD8F82C408F
:104BB0002846FCF71BFA002800F0C9802946284641
:104BC000FCF776F8054621462846FCF72DFA002822
:104BD00040F0BA80C8F82050BE626D4F6D4C97F817
:104BE00000E00CAD0EF10106F6B2242E08BF00263F
:104BF0000FCD0FC42B6802AD44F824390FCD0FC47C
:104C00002B685F4A236082F800E03E70FFF73AFCB1
:104C1000012017B0BDE8F08F55491A8BC9880A43A7
:104C20001A832EE7524A198B12880A431A83AAE67E
:104C30004F491A8B89880A431A83F8E64C491A8B24
:104C400049880A431A83C8E6DBF800101AF0080FF7
:104C500061633FF46EAFA06AFCF72AF868E74B4C3B
:104C6000DDF830B0D4F814A058465146FCF720F8CF
:104C7000514600F1004A5846FBF710FFA369DDF8E2
:104C800034B01946119058460093FCF711F80146CC
:104C90005046FBF703FF009B824619465846FBF738
:104CA000FDFEE369DDF838B01946129058460093CE
:104CB000FBF7FEFF01465046FBF7F0FE009B8246E5
:104CC00019465846FBF7EAFE236ADDF83CB0194660
:104CD000139058460093FBF7EBFF01465046FBF755
:104CE000DDFE009B824619465846FBF7D7FED4F8F6
:104CF00024B0109C149021465846FBF7D9FF01467A
:104D00005046FBF7CBFE594682462046FBF7C6FECF
:104D1000214915905046FCF787F9F0B10022BB1BE2
:104D200005EB8303DA6214E7164B587AFBF76CFF46
:104D30002146FBF7BDFF1449FBF7BAFF06462AE7F9
:104D4000012017B0BDE8F08FC8F8204044E7314695
:104D50003046FBF7ADFF054635E710495046FCF7F6
:104D600045F9F8B1BB1B0E4A05EB8303DA62F0E6A6
:104D7000CCC200087413002060130020620A0020D7
:104D8000600A0020881100200AD7233C640A002012
:104D9000630A0020780A0020EFFF7F3FEFFF7FBF0C
:104DA000FFFF7F7F11A8FFF785FA11A91748FFF7CA
:104DB000FFFA514683464FF07E50FBF76FFE4FF0EF
:104DC0007C51FBF775FF06F0DFF9824658465146E5
:104DD000FBF76EFFD9F85810FBF76AFF5146814682
:104DE0004FF07E50FBF75AFE01464846FCF714F898
:104DF000BC1B002105EB84048146FCF70BF908B9C4
:104E00004FF00009C4F82C90A3E600BF74130020F3
:104E100030B4044D044C0FCD0FC42B68236030BC5C
:104E2000704700BFB4110020640A0020064A074BF7
:104E300012781B789A422CBF03F1230003F1FF3054
:104E4000801AC0B2704700BF600A0020620A0020CA
:104E500008B503F083FD044A044B12781A70BDE8CC
:104E60000840FFF70FBB00BF620A0020610A002064
:104E700010B50446007828B102F056FB14F8010F73
:104E80000028F9D110BD00BF632870B5054620D9B0
:104E90001C48A0FB05304009303002F045FB1A48A1
:104EA000A0FB0534E408E3B2A0FB0320C00800EB3C
:104EB0008000A3EB40003030C0B202F035FB04EBC1
:104EC0008400A5EB40003030C0B2BDE8704002F075
:104ED0002BBB092805D8BDE870403030C0B202F0C5
:104EE00023BB0A26B0FBF6F404F13000C0B202F096
:104EF0001BFB06FB1450BDE870403030C0B202F01E
:104F000013BB00BF1F85EB51CDCCCCCCF0B50D460B
:104F100085B000210646FCF769F8002852D1012D22
:104F200056D92C462F4F30463946FBF7C1FE023C7E
:104F3000E4B2012C0646F6D805F0010323B1304651
:104F40002949FBF7B5FE06464FF07C513046FBF78A
:104F5000A7FDFCF789F800283CD00022234EA6FBD1
:104F60000013DB0803EB8301A0EB4100541C04A9F0
:104F700030300A44E4B202F8100C22461846002BE6
:104F8000EDD1A54228D96A1E121BD2B201320DEB17
:104F90000400302105F0D7FF302204AB6C1C2B44F9
:104FA00003F8102CE4B25CB10DEB0406A54215D059
:104FB00016F8010D013C02F0B7FA14F0FF04F5D128
:104FC00005B0F0BD2D2002F0AFFA06F10046A6E7CD
:104FD0002B46B3E70446D4E7E5D1DDE72E2002F007
:104FE000A3FAE5E70000C84200002041CDCCCCCCBC
:104FF00030B56E4B85B093F86830DB0752D4002192
:105000000446FBF7F3FF002840F0A88068492046DB
:10501000FBF74EFE4FF07C51FBF742FDFCF724F806
:10502000002800F0A1800021624D00E02146A5FB90
:105030000023DB0803EB8302A0EB420004AA30301C
:105040004C1C0A4402F8100CE4B21846002BEDD1B7
:10505000022C16D830228B1C04A8DBB20444032B8C
:1050600004F8102C07D00344FF2903F8102C02D1B8
:1050700030238DF80230302304241D468DF8033090
:1050800005E0032CF7D004AB234413F8115C013C7A
:10509000E4B2022C7BD0284602F046FA002CF2D172
:1050A00005B030BD4449FBF703FE00210446FBF781
:1050B0009DFF00285ED141492046FBF7F9FD4FF0E6
:1050C0007C51FBF7EDFCFBF7CFFF002858D0002107
:1050D000384D00E02146A5FB0023DB0803EB8302EB
:1050E000A0EB420004AA30304C1C0A4402F8100C19
:1050F000E4B21846002BEDD1032C1ED830228B1CB5
:1051000004A8DBB20444042B04F8102C0FD00331A4
:10511000C9B20344042903F8102C08D0302304AA90
:105120000A44022902F8103C01D18DF803303023E3
:1051300005241D468DF8043005E0042CF7D004AB9F
:10514000234413F8115C013CE4B2032C26D028461A
:1051500002F0EAF9002CF2D105B030BD2D2002F0AA
:10516000E3F904F1004451E730238DF800308DF865
:1051700001307DE72D2002F0D7F904F100449AE7D1
:10518000302302218DF800308DF80130C6E72E2043
:1051900002F0CAF9284602F0C7F974E72E2002F09F
:1051A000C3F9284602F0C0F9C9E700BF4C1300203C
:1051B00000007A44CDCCCCCC8B42213D00401C4633
:1051C00070B54D4B84B093F86830DB0735D40021BF
:1051D0000446FBF70BFF00287BD14FF07C512046A3
:1051E000FBF75EFCFBF740FF00286DD00022434D2B
:1051F000A5FB0013DB0803EB8301A0EB4100541C6B
:1052000004A930300A44E4B202F8100C22461846D1
:10521000002BEDD1002C57D004AB1A4412F8110C1E
:10522000013CE4B26D466C4401E014F8010D02F05B
:105230007BF9AC42F9D104B070BD3149FBF738FDC0
:1052400000210446FBF7D2FE002848D12D49204614
:10525000FBF72EFD4FF07C51FBF722FCFBF704FF20
:10526000A0B10021254CA4FB0032D20802EB82033E
:10527000A0EB430004AD4B1C30302944DBB201F8F5
:10528000100C19461046002AEDD173BB30238DF85F
:1052900000303022022316468DF801205C1EE5B254
:1052A0006D4400E05C1E304602F03EF9E3B2012B93
:1052B00015F8016DF6D12E2002F036F9304604B013
:1052C000BDE8704002F030B9302001248DF80000B4
:1052D000A6E72D2002F028F904F100447DE72D20F7
:1052E00002F022F904F10044B0E7012BD1D02944A7
:1052F00011F8116CD2E700BF4C130020CDCCCCCC00
:105300008B42213D0000204110B5012182B04FF4B5
:1053100000740820FCF7D8FA0322482302A921F8D8
:10532000044D09488DF806208DF80730FCF768F821
:105330000021064A064B92F9682019808A42A8BFCC
:105340001C8002B010BD00BF000C01404C130020B7
:10535000CA11002000230749074A91F968101380F9
:105360009942AABF4FF400714FF40073118000B14D
:10537000138070474C130020CA11002008B505485F
:10538000FCF7F4F9044B00F400701B88181A18BFDE
:10539000012008BD000C0140CA11002070B50C4866
:1053A000FCF7E4F90B4B00F400701B8883420DD02E
:1053B0000022094B094D0A4C1A700A4E0FCD0FC43A
:1053C00033782A6843F040033370226070BD00BF19
:1053D000000C0140CA1100209E110020B4110020D1
:1053E000A01100209D11002008B5FFF789F920B118
:1053F000BDE80840022004F067BB08BDF8B5AC4B1F
:105400001B78002B4FD1AB4CAB4D2B7803F0FF0535
:1054100093B3EE0600F1D680E80700F1F18015F0B5
:10542000E80F0AD02378990700F0F0806EB2002EC2
:10543000C0F26181E82004F051FBAB0719D515F0EB
:10544000680F13D12378402B00F06D81002B40F0C2
:105450003B8100232371FFF753F920B1A37813F0A8
:10546000400300F098810023A3702370022004F011
:1054700035FB690700F1A980904B1B7803F0FF050D
:10548000002B67D18E4B1B7803F0FF05DBB9237827
:1054900013F0FC0F03D1F8BD15F0C00F47D1BDE8E4
:1054A000F84003F071BA012603F0FF05814C28464D
:1054B000013D267001F0C4F9B54240F222817E4DD3
:1054C00004F01EFBA1E704F03FFBA27A15F0010FE8
:1054D0000CBF13466423A80744BF0A33DBB2690735
:1054E00044BF0A3BDBB22F0744BF0133DBB2EE06F9
:1054F00044BF03F1FF33DBB2C82B28BFC8230A2BFC
:1055000038BF0A239A4206D000212279A37242F0C2
:10551000080323712173A806237802D5102B00F00D
:10552000BD8015F0C00FB3D0002B40F0DF80654F79
:105530002A063E7A00F1F080680605D571064CBF58
:1055400006F0BF0646F040063046FCF781FB2378A4
:105550003E729DE704F0F0FA217A15F0010F0CBFBE
:105560000B466423AE0744BF0A33DBB2680744BF6F
:105570000A3BDBB22F0744BF0133DBB2EE0644BF68
:1055800003F1FF33DBB2C82B28BFC8230A2B38BF77
:105590000A23607A15F0200F14BF6422024615F02A
:1055A000400F18BF322215F0800F18BF1922994200
:1055B00023D00021237262722173FFF713F9FFF7E2
:1055C00047FC5FE701236370F8BD237813F0D00F29
:1055D00002D0E378002B51D0A3781F0652D413F0E9
:1055E000200236D0402203F07F0343F00103A37072
:1055F0002270042004F072FA3EE78242D9D141E7DA
:1056000001F084FD012004F069FA08E713F0280F87
:1056100022D133BB0122A2706A0600F19A802F07C3
:105620006EB201D510232370A8067FF500AF0620C7
:1056300001F01CF9A378190607D42278402A00F05B
:10564000B980802A01D04022227043F02003A37049
:10565000EDE6A2702270CCE7A27812F0C00F00F045
:1056600089806AB26806164602D5990640F1AA807A
:105670002F07D9D513F0E00FD6D1D3E794F9023034
:10568000002B59DA00232371FEF7F8FF02F0F2FF36
:10569000FCF7E0FBFFF7BCFBA378A0E7E37A002B65
:1056A0005CD10223E37215F0C00F7FF440AFF6E641
:1056B000C8110020881100209D11002084110020B5
:1056C0009C110020D4100020DA067FF5CFAEA2781E
:1056D000D0077FF5CBAE102B7FF4BBAEE37A002B67
:1056E0003FF4B7AE43F00803E372BFE613F0180FC0
:1056F0003FF4CEAE1BE72378012B36D080232370F6
:1057000098E6304601F0B2F8102004F0E7F92F4D8A
:105710002B78DF06FCD5D3E633064CBF06F07F06B8
:1057200046F0800608E7A37813F020027FF49EAECF
:10573000DF0638D522708CE6FFF78AFB23799A07BB
:1057400003D5A27842F00102A27023F00603237170
:105750004FE741216AB21646A17089E7D9077FF564
:105760009BAE43F00403E3729DE7A37843F0050387
:10577000A370C3E703F0F2F8022223782271202BF2
:105780007FF447AF6EB2002EFFF64EAFA37863F002
:105790007F03A37048E70822A370227003F0F4F897
:1057A00002F010FD62E65E077FF560AE43F008038D
:1057B000A3705BE61A077FF546AF23F01C0343F0A6
:1057C000020340E7A17841F04001C4E79D110020A9
:1057D0002DE9F04F83B0FEF793FF002800F0E08240
:1057E000837ED0F838800193BA4E96F868309B07D4
:1057F00000F1A7820025B84CA378002B00F09A8016
:105800006278002A40F09680DF071AD5217811F0DF
:10581000C00000F0928013F0040B00F07C8180291E
:1058200000F0D282402900F06882180709D5DFF81D
:10583000BCA29AF80910002900F0D581990740F11F
:105840002782A64B1B7803F0FF0B002B40F08A80C9
:10585000A34F3B7803F0FF0B002B54D01BF0100F2D
:1058600040F026811BF0010F40F075811BF0E80F1E
:105870000CD02378980700F074814FFA8BF9B9F1B6
:10588000000FC0F29D81E82004F028F91BF0020F00
:1058900019D01BF0680F13D12378402B00F04882F9
:1058A000002B40F0028200232371FEF729FF20B174
:1058B000A37813F0400300F07C820023A3702370D0
:1058C000022004F00BF91BF0040F1CD0237813F016
:1058D000D00F00F00D81E378002B40F0098194F99E
:1058E0000230002BC0F2FD81FFF7B2FA23799F0747
:1058F00003D5A27842F00102A27023F0060304202F
:10590000237104F0EBF8774B1B7803F0FF0B002BAF
:1059100036D1754B1B7803F0FF0B002B74D1237825
:1059200013F0FC0F3FF468AF03F02EF8A378002BC0
:105930007FF466AF03B0BDE8F08FE37A002B00F090
:10594000BA809F0740F1F780684B5B7A002B40F0EC
:10595000E9810023E372614B1B7803F0FF0B002BFE
:105960003FF476AF012758460BF1FF3B277000F05C
:1059700067FFBB4540F28181594F04F0C1F868E7E9
:1059800004F0DAF81BF0010F18BF6423227A607A62
:1059900008BF13461BF0020F1CBF0A33DBB21BF01B
:1059A000040F1CBF0A3BDBB21BF0080F1CBF013306
:1059B000DBB21BF0100F1CBF03F1FF33DBB2C82BAF
:1059C00028BFC8230A2B38BF0A231BF0200F14BF9F
:1059D000642101461BF0400F18BF32211BF0800FDD
:1059E00018BF19219A4201D1884292D00022237215
:1059F00061722273FEF7F6FEFFF72AFA3A4B1B7824
:105A000003F0FF0B002B8AD004F09EF81BF0010F6F
:105A100018BF6423A27A08BF13461BF0020F1CBFF5
:105A20000A33DBB21BF0040F1CBF0A3BDBB21BF0D6
:105A3000080F1CBF0133DBB21BF0100F1CBF03F1BA
:105A4000FF33DBB2C82B28BFC8230A2B38BF0A2379
:105A50009A4206D000212279A37242F008032371F2
:105A600021731BF0200F237802D0102B00F04F8100
:105A70001BF0C00F3FF454AF002B40F0D680DFF88E
:105A80006CA01BF0800F9AF8089040F0DA801BF0B1
:105A9000400F06D019F0400F14BF09F0BF0949F0BC
:105AA00040094846FCF7D4F823788AF8089037E78D
:105AB00001236370A0E623791A077FF5C2AE019B2C
:105AC000414603F0300002F03DFA237923F0080349
:105AD0002371B6E64C13002088110020C811002065
